:020000040800F2
:1000000000000520812200089121000893210008AA
:1000100095210008972100089921000800000000A0
:1000200000000000000000000000000071930008C4
:100030009B2100080000000011940008759400083E
:10004000D1220008D1220008D1220008D1220008C4
:10005000D1220008D1220008D1220008D1220008B4
:10006000D1220008D1220008D1220008D1220008A4
:10007000D1220008D1220008D1220008D122000894
:10008000D1220008D1220008D1220008D122000884
:10009000D1220008D1220008D1220008D122000874
:1000A000D1220008D1220008D1220008D122000864
:1000B000D1220008D1220008D1220008D122000854
:1000C000D1220008D1220008D1220008D122000844
:1000D000D12200089D210008D1220008D122000869
:1000E000D1220008D1220008D1220008D122000824
:1000F000D1220008D1220008D1220008D122000814
:10010000D1220008D1220008D1220008D122000803
:10011000D1220008D1220008A9210008D12200081C
:10012000D1220008D1220008D1220008D1220008E3
:10013000D1220008D1220008D1220008D1220008D3
:10014000D1220008D1220008D1220008D1220008C3
:10015000D1220008D1220008D1220008D1220008B3
:10016000D1220008D1220008D1220008D1220008A3
:10017000D1220008D1220008D1220008000000008E
:10018000D1220008D1220008D1220008D122000883
:10019000D1220008D1220008D1220008D122000873
:1001A000B5210008D1220008C1210008D122000891
:1001B000D1220008D1220008D1220008D122000853
:0801C000D1220008D122000841
:1001D00010B5054C237833B9044B13B10448AFF381
:1001E00000800123237010BD4003002000000000A8
:1001F0009428030808B5034B1BB103490348AFF328
:10020000008008BD0000000044030020942803087B
:1002100010F8012B11F8013B012A28BF9A42F7D0B0
:10022000D01A7047034613F8012B002AFBD1181A85
:1002300001387047000000000000000000000000CE
:1002400001F0FF01102A2BDB10F0070F08D010F887
:10025000013B013A8B422DD010F0070F42B3F6D18B
:10026000F0B441EA012141EA014122F007047FF0A4
:1002700000070023F0E80256083C85EA010586EAFB
:10028000010685FA47F5A3FA87F586FA47F6A5FA37
:1002900087F68EB9EED1F0BC01F0FF0102F0070243
:1002A00032B110F8013B013A83EA010313B1F8D1EE
:1002B0000020704701387047002D06BF35460338CF
:1002C000073815F0010F07D1013015F4807F02BF08
:1002D000013015F4C03F0130F0BC0138704700BF59
:1002E00081F0004102E000BF83F0004330B54FEAE7
:1002F00041044FEA430594EA050F08BF90EA020F54
:100300001FBF54EA000C55EA020C7FEA645C7FEAE6
:10031000655C00F0E2804FEA5454D4EB5555B8BF09
:100320006D420CDD2C4480EA020281EA030382EA7A
:10033000000083EA010180EA020281EA0303362D0C
:1003400088BF30BD11F0004F4FEA01314FF4801CDF
:100350004CEA113102D0404261EB410113F0004FF1
:100360004FEA03334CEA133302D0524263EB4303A8
:1003700094EA050F00F0A780A4F10104D5F1200E46
:100380000DDB02FA0EFC22FA05F2801841F10001A1
:1003900003FA0EF2801843FA05F359410EE0A5F175
:1003A00020050EF1200E012A03FA0EFC28BF4CF0A6
:1003B000020C43FA05F3C01851EBE37101F000455C
:1003C00007D54FF0000EDCF1000C7EEB00006EEB69
:1003D0000101B1F5801F1BD3B1F5001F0CD34908F3
:1003E0005FEA30004FEA3C0C04F101044FEA44524A
:1003F00012F5800F80F09A80BCF1004F08BF5FEAD1
:10040000500C50F1000041EB045141EA050130BDB0
:100410005FEA4C0C404141EB0101013C28BFB1F5C2
:10042000801FE9D291F0000F04BF01460020B1FA0D
:1004300081F308BF2033A3F10B03B3F120020CDAE0
:100440000C3208DD02F1140CC2F10C0201FA0CF0BE
:1004500021FA02F10CE002F11402D8BFC2F1200C23
:1004600001FA02F120FA0CFCDCBF41EA0C019040D9
:10047000E41AA2BF01EB0451294330BD6FEA040422
:100480001F3C1CDA0C340EDC04F11404C4F120020D
:1004900020FA04F001FA02F340EA030021FA04F31F
:1004A00045EA030130BDC4F10C04C4F1200220FA76
:1004B00002F001FA04F340EA0300294630BD21FAB4
:1004C00004F0294630BD94F0000F83F4801306BF7A
:1004D00081F480110134013D4EE77FEA645C18BF6E
:1004E0007FEA655C29D094EA050F08BF90EA020F05
:1004F00005D054EA000C04BF1946104630BD91EAFD
:10050000030F1EBF0021002030BD5FEA545C05D1FF
:100510004000494128BF41F0004130BD14F580043E
:100520003CBF01F5801130BD01F0004545F0FE41B2
:1005300041F470014FF0000030BD7FEA645C1ABFE7
:10054000194610467FEA655C1CBF0B46024650EA1E
:10055000013406BF52EA033591EA030F41F400214A
:1005600030BD00BF90F0000F04BF0021704730B5D0
:100570004FF4806404F132044FF000054FF00001A5
:1005800050E700BF90F0000F04BF0021704730B566
:100590004FF4806404F1320410F0004548BF40423B
:1005A0004FF000013EE700BF42004FEAE2014FEA90
:1005B00031014FEA02701FBF12F07F4393F07F4F6B
:1005C00081F06051704732F07F4208BF704793F06E
:1005D0007F4F04BF41F40021704730B54FF4607481
:1005E00001F0004521F000411CE700BF50EA010284
:1005F00008BF704730B54FF000050AE050EA01022D
:1006000008BF704730B511F0004502D5404261EB9C
:1006100041014FF4806404F132045FEA915C3FF4DD
:10062000D8AE4FF003025FEADC0C18BF03325FEA7A
:10063000DC0C18BF033202EBDC02C2F1200300FA2B
:1006400003FC20FA02F001FA03FE40EA0E0021FA50
:1006500002F11444BDE600BF70B54FF0FF0C4CF43E
:10066000E06C1CEA11541DBF1CEA135594EA0C0FF0
:1006700095EA0C0F00F0DEF82C4481EA030621EA2B
:100680004C5123EA4C5350EA013518BF52EA033566
:1006900041F4801143F4801338D0A0FB02CE4FF018
:1006A0000005E1FB02E506F00042E0FB03E54FF048
:1006B0000006E1FB03569CF0000F18BF4EF0010E40
:1006C000A4F1FF04B6F5007F64F5407404D25FEA3C
:1006D0004E0E6D4146EB060642EAC62141EA5551EF
:1006E0004FEAC52040EA5E504FEACE2EB4F1FD0C31
:1006F00088BFBCF5E06F1ED8BEF1004F08BF5FEAAF
:10070000500E50F1000041EB045170BD06F0004660
:1007100046EA010140EA020081EA0301B4EB5C040D
:10072000C2BFD4EB0C0541EA045170BD41F4801105
:100730004FF0000E013C00F3AB8014F1360FDEBF2A
:10074000002001F0004170BDC4F10004203C35DA06
:100750000C341BDC04F11404C4F1200500FA05F389
:1007600020FA04F001FA05F240EA020001F000422A
:1007700021F0004110EBD37021FA04F642EB0601A0
:100780005EEA430E08BF20EAD37070BDC4F10C04CA
:10079000C4F1200500FA04F320FA05F001FA04F28E
:1007A00040EA020001F0004110EBD37041F100017A
:1007B0005EEA430E08BF20EAD37070BDC4F1200585
:1007C00000FA05F24EEA020E20FA04F301FA05F2ED
:1007D00043EA020321FA04F001F0004121FA04F295
:1007E00020EA020000EBD3705EEA430E08BF20EA65
:1007F000D37070BD94F0000F0FD101F0004640009F
:1008000041EB010111F4801F08BF013CF7D041EA20
:10081000060195F0000F18BF704703F00046520024
:1008200043EB030313F4801F08BF013DF7D043EAF5
:100830000603704794EA0C0F0CEA135518BF95EAAB
:100840000C0F0CD050EA410618BF52EA4306D1D132
:1008500081EA030101F000414FF0000070BD50EA51
:10086000410606BF1046194652EA430619D094EADB
:100870000C0F02D150EA013613D195EA0C0F05D1C5
:1008800052EA03361CBF104619460AD181EA030119
:1008900001F0004141F0FE4141F470014FF00000D1
:1008A00070BD41F0FE4141F4780170BD70B54FF06C
:1008B000FF0C4CF4E06C1CEA11541DBF1CEA1355EC
:1008C00094EA0C0F95EA0C0F00F0A7F8A4EB0504CE
:1008D00081EA030E52EA03354FEA013100F08880C5
:1008E0004FEA03334FF0805545EA131343EA12638E
:1008F0004FEA022245EA111545EA10654FEA002643
:100900000EF000419D4208BF964244F1FD0404F5FB
:10091000407402D25B084FEA3202B61A65EB030557
:100920005B084FEA32024FF480104FF4002CB6EB14
:10093000020E75EB030E22BFB61A754640EA0C0094
:100940005B084FEA3202B6EB020E75EB030E22BFD4
:10095000B61A754640EA5C005B084FEA3202B6EB15
:10096000020E75EB030E22BFB61A754640EA9C00D4
:100970005B084FEA3202B6EB020E75EB030E22BFA4
:10098000B61A754640EADC0055EA060E18D04FEA62
:10099000051545EA16754FEA06164FEAC30343EA02
:1009A00052734FEAC2025FEA1C1CC0D111F4801FCF
:1009B0000BD141EA00014FF000004FF0004CB6E7C8
:1009C00011F4801F04BF01430020B4F1FD0C88BF67
:1009D000BCF5E06F3FF6AFAEB5EB030C04BFB6EB72
:1009E000020C5FEA500C50F1000041EB045170BD65
:1009F0000EF0004E4EEA113114EB5C04C2BFD4EB92
:100A00000C0541EA045170BD41F480114FF0000E15
:100A1000013C90E645EA060E8DE60CEA135594EA91
:100A20000C0F08BF95EA0C0F3FF43BAF94EA0C0F94
:100A30000AD150EA01347FF434AF95EA0C0F7FF409
:100A400025AF104619462CE795EA0C0F06D152EA5D
:100A500003353FF4FDAE1046194622E750EA410641
:100A600018BF52EA43067FF4C5AE50EA41047FF452
:100A70000DAF52EA43057FF4EBAE12E74FEA4102B5
:100A8000B2F1E04324BFB3F5001CDCF1FE5C0DD9EC
:100A900001F0004C4FEAC0024CEA5070B2F1004F36
:100AA00040EB830008BF20F00100704711F0804F39
:100AB00021D113F13872BCBF01F00040704741F4FE
:100AC00080114FEA5252C2F11802C2F1200C10FA02
:100AD0000CF320FA02F018BF40F001004FEAC123E6
:100AE0004FEAD32303FA0CFC40EA0C0023FA02F38A
:100AF0004FEA4303CCE77FEA625307D150EA013360
:100B00001EBF4FF0FE4040F44000704701F000402F
:100B100040F0FE4040F40000704700BF7BB972B95E
:100B20000029BEBF00204FF0004106E008BF0028AA
:100B30001CBF6FF000414FF0FF3000F0B5B9ADF1D0
:100B4000080C6DE904CE002909DB002B1ADB00F04C
:100B50004DF8DDF804E0DDE9022304B070474042BF
:100B600061EB4101002B1BDB00F040F8DDF804E0F5
:100B7000DDE9022304B0404261EB4101524263EBE4
:100B800043037047524263EB430300F02FF8DDF854
:100B900004E0DDE9022304B0404261EB410170470B
:100BA000524263EB430300F021F8DDF804E0DDE995
:100BB000022304B0524263EB4303704753B94AB96E
:100BC000002908BF00281CBF4FF0FF314FF0FF3055
:100BD00000F06AB9ADF1080C6DE904CE00F006F83A
:100BE000DDF804E0DDE9022304B070472DE9F047A9
:100BF000089D0C46002B4ED194468C458646B2FA91
:100C000082F262D94AB1C2F12003914020FA03F383
:100C10000CFA02FC194300FA02FE4FEA1C471FFAC5
:100C20008CF6B1FBF7F44FEA1E4307FB141143EABD
:100C3000014304FB06F199420AD91CEB030304F1BA
:100C4000FF3080F01281994240F20F81023C6344F0
:100C5000591A1FFA8EF3B1FBF7F007FB101143EAA4
:100C6000014300FB06F69E420AD91CEB030300F188
:100C7000FF3180F0FC809E4240F2F98063440238EC
:100C80009B1B40EA044000211DB1D3400022C5E96E
:100C90000032BDE8F0878B4205D90DB1C5E90001EE
:100CA00000210846F5E7B3FA83F1002946D1A342B3
:100CB00002D39042C0F0F080861A64EB0303012057
:100CC000002DE6D0C5E90063E3E7002A40F09080FC
:100CD000A1EB0C044FEA1C481FFA8CF70121B4FB6E
:100CE000F8F64FEA1E4308FB164443EA044307FBA9
:100CF00006F0984208D91CEB030306F1FF3402D238
:100D0000984200F2CD8026461C1A1FFA8EF3B4FBDF
:100D1000F8F008FB104443EA044300FB07F79F4246
:100D200008D91CEB030300F1FF3402D29F4200F20A
:100D3000B0802046DB1B40EA0640A5E7C1F1200653
:100D40008B4022FA06F71F4320FA06FC04FA01F34F
:100D500043EA0C03F44000FA01F8380C4FEA134957
:100D6000B4FBF0FE1FFA87FC00FB1E4449EA044472
:100D70000EFB0CF9A14502FA01F20AD93C190EF159
:100D8000FF3A80F08480A14540F28180AEF1020EEE
:100D90003C44A4EB09041FFA83F9B4FBF0F300FB15
:100DA000134449EA044403FB0CFCA44507D93C194D
:100DB00003F1FF3067D2A44565D9023B3C4443EAC6
:100DC0000E40A0FB0293A4EB0C049C42CE469C4632
:100DD00051D34ED055B1B8EB0E0364EB0C0404FABA
:100DE00006F6CB401E43CC40C5E90064002150E725
:100DF000C2F1200320FA03F10CFA02FC24FA03F3F7
:100E000094400C434FEA1C4800FA02FE1FFA8CF78C
:100E1000B3FBF8F008FB1031230C43EA014300FB5D
:100E200007F1994208D91CEB030300F1FF362CD2DD
:100E300099422AD9023863445B1AA4B2B3FBF8F191
:100E400008FB113344EA034401FB07F3A34208D92A
:100E50001CEB040401F1FF3613D2A34211D902396D
:100E60006444E41A41EA004139E70446F0E60846E2
:100E700006E7C845AED2B9EB020E63EB070C0138AA
:100E8000A8E73146EDE7034699E73046D4E7D64672
:100E90007FE7634402384DE70646234608460FE7DE
:100EA000023E634430E700BF704700BF01490020A5
:100EB00009F06EBC85270008FEE7000083B52B4EC5
:100EC0000027DFF8B4804FF0FF33294C3A460DF18C
:100ED000060130688DF8067008F020F825484FF0BC
:100EE000FF3300220DF107010125006808F058F8D2
:100EF0004FF0FF3300220DF1060130688DF80650E7
:100F000008F00CF89DF807302A464FF4807133BB87
:100F1000204604F043FE42F2107007F039FE4046CE
:100F200000224FF4807104F039FE204600224FF475
:100F3000807104F033FE204600224FF4007104F06B
:100F40002DFE4FF0FF3300220DF1060130688DF8C1
:100F5000067007F0E3FF642007F01AFEBEE7404684
:100F600004F01CFE2A464FF40071D1E7E403002090
:100F700000040240DC0300200000024000262C4D4B
:100F8000DFF8BC804FF0FF33324683B5294F0DF1B7
:100F9000060128688DF8066007F0C0FF26484FF06C
:100FA000FF3300220DF107010124006807F0F8FF6C
:100FB0004FF0FF3300220DF1060128688DF806403E
:100FC00007F0ACFF9DF8073022463BBB4FF4804151
:100FD000384604F0E3FD42F2107007F0D9FD4046B8
:100FE00000224FF4007104F0D9FD384600224FF47E
:100FF000804104F0D3FD00220221104804F0CEFD10
:101000004FF0FF3300220DF1060128688DF80660CD
:1010100007F084FF642007F0BBFDBFE74FF40071C9
:10102000404604F0BBFD224602210448D1E700BF40
:10103000E003002000040240D8030020002002400A
:10104000001402401D4C1E4D07B51E4E4FF0FF33DD
:1010500000220DF10701206807F0A2FF00230DF127
:10106000050128681A4607F09BFF00230DF10601D1
:1010700030681A4607F094FF9DF8052042B94FF0FA
:10108000FF330DF107011048006807F047FFDCE768
:101090009DF806202AB94FF0FF330DF107010B48E8
:1010A000F2E7642007F074FD9DF80530002BCCD0EA
:1010B0009DF80630002BD1D1C7E700BFE803002020
:1010C000E4030020E0030020DC030020D80300201C
:1010D0000FB400B59BB064211CAB01A853F8042BDE
:1010E000009330F08DFB01A8FFF79CF84FF0FF3321
:1010F00082B201A9034807F00CFB1BB05DF804EBBA
:1011000004B070474004002073B5642200212948D0
:1011100041F2873630F016FC0023274A274C138013
:10112000012227492748237007F0FCFB2648FFF7D8
:10113000CFFF04F039F9054623783BB1237873B922
:10114000224802B0BDE87040FFF7C2BF04F02CF99E
:10115000431BB342F2D80A2007F01AFDECE715480A
:1011600003F0C2FF1A491348FFF752F8024668B964
:1011700001904FF0FF33174801A9006807F0CEFE39
:1011800010B91548FFF7A4FF02B070BD1349094814
:10119000FFF73EF802460028F6D101230D4801A9C9
:1011A00001934FF0FF33006807F0B8FE0028EBD141
:1011B0000B48E7E7710300206E0300207003002056
:1011C0006C03002040040020F028030831290308A4
:1011D00001290308E8030020082903081929030846
:1011E00020290308094C07B54FF0FF3300220DF109
:1011F0000701206807F0D4FE0028F5D19DF80730DC
:10120000002BF1D0FFF780FFEEE700BFEC030020DA
:1012100010B594B01022002102240AA830F092FBED
:101220001422002103A830F08DFB1D4B192108A8C2
:101230001A6C42F080521A641B6C03F080530193C5
:10124000019B184B1A6842F440421A6001221B6845
:1012500003F440430293029B4FF48033CDE908230B
:101260004FF48003CDE90E434FF4D873CDE9124417
:10127000CDE9101305F080FC05F0DEF90F23002006
:101280000721CDE903344FF4A053CDE905034FF412
:10129000805303A8079305F057FE14B010BD00BF9C
:1012A000003802400070004030B54FF480738FB0BA
:1012B0004FF080720E4D06939F23099201220093F6
:1012C00000230446694628460593CDE90A2341F2E6
:1012D0008832CDE90733CDE90C3305F019FB41F233
:1012E00088322146284605F0E3FB0FB030BD00BF31
:1012F0006005002000B54FF4807391B04FF040724C
:10130000EF2808934FF0EB0302A90D4802934FF426
:10131000406309934FF4005305934FF00003CDE968
:101320000A3214BF0A2206220F9307926A46CDE9B9
:101330000D33CDE9003305F030FB11B05DF804FB4F
:10134000600500202DE98048A1B010220021012570
:1013500013A8002430F0F6FA04F0A2F84FF0104180
:10136000C54B13A8ADF84C501694CDE9141304F0F6
:10137000B5F8172313A88DF84D508DF854308DF81B
:101380005A5004F0ABF8042004F098F8BFF34F8FE4
:10139000BFF36F8FB94AC2F85042BFF34F8FBFF30C
:1013A0006F8F536943F400335361BFF34F8FBFF323
:1013B0006F8FC2F88440BFF34F8FD2F8803043F66E
:1013C000E074C3F3C900C3F34E335B0103EA0406C0
:1013D000014646EA81750139C2F86052F9D2203BD4
:1013E00013F1200FF2D1BFF34F8F536943F48033D1
:1013F0005361BFF34F8FBFF36F8F03F0B7FF00242C
:10140000FFF706FF1422002113A830F09BFA9C4B33
:1014100044F210319B481A6B012510274FF0030A44
:1014200042F010024FF480764FF0400B4FF002086C
:101430001A634FF004091A6B02F010020192019A2C
:101440001A6B42F002021A631A6B02F00202029255
:10145000029A1A6B42F001021A631A6B02F001023F
:101460000392039A1A6B42F040021A631A6B02F05D
:1014700040020492049A1A6B42F400721A631A6BC7
:1014800002F400720592059A1A6B42F008021A6380
:101490001A6B02F008020692069A1A6B42F48062F6
:1014A0001A631A6B02F480620792079A1A6B42F071
:1014B00020021A631A6B02F020020892089A1A6B33
:1014C00042F480721A631A6B02F480720992099ACC
:1014D0001A6B42F080021A631A6B02F080020A92C1
:1014E0000A9A1A6B42F004021A6300221B6B03F083
:1014F00004030B930B9B04F051FB0122082162486B
:1015000004F04CFB00220221604804F047FB01225A
:101510004FF480515D4804F041FB00224FF480718C
:101520005B4804F03BFB0022C0215A4804F036FB24
:1015300000224021584804F031FB00224FF4007192
:10154000564804F02BFB4FF4864313A94D48CDE9D0
:101550001335CDE9154404F09DF913A94948CDF898
:1015600058A01594CDE9137504F094F9082313A934
:101570004548CDE91335CDE9154404F08BF941F226
:10158000020213A94148CDE91325CDE9154404F021
:1015900081F913A93E48CDE91365CDE9154404F05E
:1015A00079F9C02213A93B48CDE91325CDE9154AA5
:1015B00004F070F913A93848CDE913B5CDE9154AFF
:1015C00004F068F94FF4007213A93448CDE91325EB
:1015D000CDE9154404F05EF9092313A92F481793A8
:1015E000139616942E4ECDE9148404F053F92D4829
:1015F0002D4A848002600562C0E9054403F09AFF29
:101600002A4A3046C6E90024C6E90244C6E90A442B
:10161000C6E90C4404F03FF829463046244E04F055
:10162000F3F8244A4FF48053C6F814B0DFF888B0BA
:1016300013A93046B460B462CDF84C80C6E90024EA
:101640004FF4C072C6E906244FF40062C6E90823CD
:101650000722C6E90397CDE9162ACDE91429CDE979
:10166000188805F0D7FF59464FF6FF7230460094B0
:10167000CBE9005722E000BF1B00000300ED00E0B3
:1016800000380240000402400028024000200240CE
:10169000000002400008024000180240001402400E
:1016A000A8060020E80600200030024000B00240FA
:1016B0000C040020400100A05C030020CBE9025490
:1016C00005F0C8FF284603F075FE59464FF6FF7235
:1016D0003046CBE90087CBE9025405F0BBFF082375
:1016E00059464FF6FF723046CBE900A7CBE90234EA
:1016F00005F0B0FF4FF40C734FF6FF72594600939C
:101700003046009B4FF0180ACBF80850CBF80C304D
:10171000CBE9009705F09EFF40F22B713046AC4EAE
:1017200005F0B7FF4FF0204343F2D2026420DFF808
:101730003CB31A6003F03EFEA64BA74A3046346223
:10174000C6E90023C6E90245C6E90444C6E90644E1
:1017500004F065FB2146304604F088FD2146304602
:101760009E4E04F0A9FD3422214613A830F0EAF879
:101770009B4B2821352040F2152C40F2352E346148
:10178000B48686F83640C6E900340923C6E9051355
:101790000B23C6E9070340F21B133046C6E909C311
:1017A00040F21D13C6E90244C6E90BE304F030FE23
:1017B0004FF48873FF214FF4F07230461E93139458
:1017C000ADF87C408DF87E40864ECDE91638CDE9E7
:1017D00018144FF480680521CDE91A814FF040417B
:1017E000CDE91424CDE91C12224613A904F0DBFE36
:1017F0007D487E4B0462C0E900354FF4A063C0E928
:101800000297C0E904A3C0E9064405F02FF813A825
:10181000FFF74AFD9DF84C00FFF76CFD5C2003F0DC
:101820002DFE00F02BFD72484FF4E1330461446259
:10183000C0E900B30C23C0E90244C0E90534C0E9A3
:10184000074406F0E6FF3A4621460FA830F07AF842
:101850001C22214613A80E94CDE90C4430F072F8F6
:10186000644B3046B460B461C6E900344FF6FF7390
:10187000C6E9033406F05AF94FF480530FA93046F5
:101880000F9306F071FA304606F080F90CA9304645
:101890000C940E9406F000FB6023224613A93046F8
:1018A00015941794CDE9133406F0D8F94A4613A9D4
:1018B000304606F0D3F9304600F018FB21463A4690
:1018C00013A830F03FF84C4E4C4AD72330461194C1
:1018D000B460C6E9002344F61F63CDE90F44C6E9AE
:1018E0000334C6E9054406F021F94FF4805313A9E7
:1018F0003046139306F038FA0FA930461194CDE91B
:101900000F4406F0C9FA00F0E5FC00F0E2FC07F035
:10191000B1F822462946284607F0BAFA384B224643
:1019200029461860284607F0B3FA364B2246294666
:101930001860284607F0ACFA334B22462946186057
:10194000284607F0A5FA314B22462946186028465A
:1019500007F09EFA2E4B224629461860284607F0CB
:1019600097FA2C4B2C4A214618602C4807F0BCF8FB
:101970002B4B2C4A214618602B4807F0B5F82B4B0F
:101980002B4A214618602B4807F0AEF82A4B2B4A09
:10199000214618602A4807F0A7F82A4B2A4A214610
:1019A00018602A4807F0A0F8294B2A4A21461860F7
:1019B000294807F099F8294B294A214618602948F7
:1019C00007F092F8284B186007F06EF8FEE700BFAA
:1019D0005406002068474020005C0040AC05002011
:1019E00000680140C804002060050020001000A02D
:1019F00040040020000400401405002000000140C5
:101A0000EC030020E8030020E4030020E0030020B2
:101A1000DC030020D8030020602A0308B90E000868
:101A2000080400203C2A0308E322000804040020E4
:101A3000182A0308653E000800040020F429030862
:101A4000E5110008FC030020D0290308BD0E0008A2
:101A5000F8030020AC2903087D0F0008F4030020E0
:101A60008829030845100008F003002000100140F9
:101A7000174B834270B51FD11648FFF729FB164953
:101A80000120164B164C08701A8892B2622A1BD895
:101A90001A8892B21518ADB21D80124D2E78A65438
:101AA0002A780A2A09D11A8892B2062A05D91B88EF
:101AB00000229BB2E254087070BD0122094904481B
:101AC000BDE8704006F02EBF002384F86330F2E7D3
:101AD0004004002043290308700300206E03002007
:101AE000710300206C0300200268034B9A4201D16D
:101AF00003F04EBC704700BF00100040704700006C
:101B00000D4B82B00F216FF001001A6C42F0805231
:101B10001A641A6C02F080520092009A5A6C42F4D5
:101B200080425A6400225B6C03F480430193019B62
:101B300002B003F063BC00BF00380240026882B00C
:101B4000084B9A420BD1D3F8302803F5006342F4D6
:101B500080521A631B6B03F480530193019B02B004
:101B6000704700BF003002400E4B07B502689A4232
:101B700015D1A3F5F04305215A201A6B42F4000257
:101B80001A6300221B6B03F400030193019B03F013
:101B900035FC5A2003B05DF804EB03F061BC03B0E0
:101BA0005DF804FB00B0024010B5A8B00446142252
:101BB000002102A82FF0C6FE8422002107A82FF0E2
:101BC000C1FE2268174B9A422AD14FF4803307A8EE
:101BD000079305F095FA08B1FFF790FF124C4FF408
:101BE000C07201211148236B43F080032363236BF0
:101BF00003F080030093009B1223CDE9022303230B
:101C0000CDE90413042302A9069303F043FE236CD9
:101C100043F400032364236C03F400030193019B4A
:101C200028B010BD005C004000380240001C02409B
:101C3000026808B5094B9A420FD1094A8021094828
:101C4000136C23F40003136403F008FF4FF4807156
:101C50000448BDE8084003F001BF08BD005C004037
:101C600000380240001C024070B5ACB0044614229B
:101C7000002106A82FF066FE842200210BA82FF079
:101C800061FE2268484B9A4240F08C800823052070
:101C900001240B934FF4C07310930223CDE911304C
:101CA0004FF400330BA8CDE9154305F029FA08B12C
:101CB000FFF724FF3D4B002402250E265A6C06A98F
:101CC0003B4842F080625A645A6C02F08062009293
:101CD000009A1A6B42F010021A631A6B02F010029B
:101CE0000192019A1A6B42F400721A631A6B02F4A1
:101CF00000720292029A1A6B42F480621A631A6BA3
:101D000002F480620392039A1A6B42F040021A6353
:101D10001A6B02F040020492049A1A6B42F4807229
:101D20001A631B6B03F480730593059B1023CDE9A5
:101D30000635CDE908440A9603F0ACFD4EF6FF7374
:101D400006A91C480A96CDE90635CDE9084403F0FA
:101D5000A1FDF72306A918480A96CDE90635CDE975
:101D6000084403F097FD4FF4805306A91348CDE9CA
:101D700006350923CDE908440A9303F08BFD4FF49F
:101D8000464306A90E480A96CDE90635CDE9084432
:101D900003F080FD58202246052103F02FFB582038
:101DA00003F05EFB2CB070BD0068014000380240BB
:101DB00000100240002402400028024000180240A7
:101DC00000200240142200212DE9F0418AB004468F
:101DD0000DEB02002FF0B6FD22682C4B9A4251D138
:101DE0002B4B0225032409269A6B4FF0040805A902
:101DF000284842F0020200279A639A6B02F002021E
:101E00000192019A1A6B42F010021A631A6B02F0E7
:101E100010020292029A1A6B42F002021A631A6BC3
:101E200002F002020392039A1A6B42F008021A634C
:101E30001B6B03F008030493049BCDE90585CDE9F2
:101E4000084603F027FD402305A91348CDE90535D1
:101E50000A23CDE90774099303F01CFD05A90E4878
:101E60000996CDE90585CDE9077403F013FD4FF41C
:101E7000605305A909480996CDE90535CDE90774F0
:101E800003F008FD0AB0BDE8F08100BF001000A01B
:101E9000003802400010024000040240000C0240E2
:101EA000036882B00E4A93420BD10E4B5A6C42F03B
:101EB00001025A645B6C03F001030093009B02B0C3
:101EC0007047094A9342FAD1064B1A6C42F002025B
:101ED0001A641B6C03F002030193019BEFE700BF40
:101EE00000000140003802400004004010B588B0F6
:101EF00004461422002103A82FF024FD2268164B6B
:101F00009A4227D103F50D33022403A913481A6B13
:101F100042F002021A631A6B02F002020192019A65
:101F20001A6B42F001021A631B6B079403F0010362
:101F30000293029B2023CDE9033403F0ABFC402342
:101F400003A907480794CDE903340023CDE90533FD
:101F500003F0A0FC08B010BD0004004000040240E3
:101F600000000240F0B5ABB004461422002104A8E2
:101F70002FF0E8FC8422002109A82FF0E3FC22685E
:101F8000244B9A4244D1402309A8099305F0B8F89C
:101F900008B1FFF7B3FD204B0024022703265A6C3B
:101FA000072504A91D4842F010025A645A6C02F039
:101FB00010020192019A1A6B42F002021A631A6B24
:101FC00002F002020292029A1A6B42F001021A63B4
:101FD0001B6B089503F001030393039B8023CDE95A
:101FE0000646CDE9043703F055FC4FF4007304A90D
:101FF0000B480895CDE90437CDE9064603F04AFCC5
:1020000025202246052103F0F9F9252003F028FABE
:102010002BB0F0BD00100140003802400004024027
:1020200000000240F0B5002387B00393294B1E68DF
:10203000002E4DD10122022703250C241A6001A98C
:10204000254B26489A6B42F001029A639B6B03F082
:1020500001030093009B4FF68373CDE90454CDE94F
:10206000013703F017FC48F2331301A91C4805940B
:10207000CDE90137CDE9036503F00CFC4CF20373A5
:1020800001A918480594CDE90137CDE9036503F0AE
:1020900001FC4FF63F0301A913480594CDE9013730
:1020A000CDE9036503F0F6FB282301A90F48059449
:1020B000CDE90137CDE9036503F0ECFB082301A965
:1020C0000B480594CDE90137CDE9036503F0E2FB48
:1020D00007B0F0BD0C07002000380240001002409D
:1020E00000180240000C024000140240001C024094
:1020F00000080240214B1A6C42F0100270B51A64BD
:1021000088B01B6C054601A903A803F010030293D5
:10211000029B04F0D7FF069B4BBB04F0B3FF184EA5
:10212000184B336040F2E733F360174BB0FBF3F327
:10213000013B3046736000233361B360B36105F047
:10214000F5FC044680B9304605F0A0FB044658B9BA
:10215000362003F085F90F2D0DD82246294636206A
:1021600003F04CF9094B1D60204608B070BD04F027
:1021700089FF4000D3E70124F6E700BF00380240A2
:10218000100700200010004040420F003C000020DB
:102190007047FEE7FEE7FEE7FEE77047014805F0FF
:1021A000FDBE00BF40040020014805F0B2BB00BFE7
:1021B00010070020014804F099B900BFAC050020C9
:1021C000014803F096BA00BFA8060020012070471E
:1021D00008B52FF0D5FC162303604FF0FF3008BD83
:1021E00008B52FF0CDFC16230360FEE770B50D4651
:1021F00014460E46731B9C4201DC204670BDAFF3B3
:10220000008006F8010BF5E770B50D4614460E4642
:10221000731B9C4201DC204670BD16F8010BAFF326
:102220000080F5E74FF0FF3070474FF40053002077
:102230004B60704701207047002070470B4A0346EF
:10224000116810B509B90A491160106809490A4CAA
:102250000344091B8B4206D92FF092FC0C23036028
:102260004FF0FF3010BD1360FCE700BF5C0700209B
:102270002067012000000520000A000070470000D0
:10228000DFF834D0002103E00C4B5B58435004319D
:102290000B480C4B42189A42F6D30B4A02E000233B
:1022A00042F8043B094B9A42F9D302F077FF2FF032
:1022B0006DFCFFF747F8704700000520387C0308E5
:1022C000000000202401002040030020206701209E
:1022D000FEE7704708B501F08DF9BDE8084001F050
:1022E00011B901F089B9406870474160704700003A
:1022F0004FF0E022D2F8FC3D43F08073C2F8FC3D81
:10230000054B064AD3F8B01F0A43C3F8B02F1A682A
:1023100042F001021A607047001000E055CEACC5D3
:10232000521A02EB5302B2FBF3F07047014B5868AC
:10233000704700BF001000E0704710B504460C2144
:102340002EF0C5F8204610BD036810B51B69044681
:1023500031B19847A26863689B1A0344636010BD5B
:102360009847A060FBE70000024B7020024A136010
:10237000DB6818471000002060070020704710B588
:10238000044604212EF0A3F8204610BD73B50E4E6E
:102390000D461446336813B9002002B070BD1B69A6
:1023A000702098470028F7D03368702001AA0DF1FB
:1023B00006015B699847BDF8043001202B60BDF829
:1023C00006302360E9E700BF600700207FB50123E6
:1023D0008DF817204FF47A72CDE901320DF1170212
:1023E00000920A460146054803F088FD10B10348F3
:1023F00003F06AFD07B05DF804FB00BF540600203F
:102400007FB500230A464FF47A718DF81730012307
:10241000CDE901310DF1170100910146054803F0A6
:1024200047FE10B1034803F04FFD9DF8170007B0B9
:102430005DF804FB54060020032823D8DFE800F0F1
:10244000020B131A104B102110481A68B2FA82F2CC
:10245000520903F0A3BB0C4B40215A68B2FA82F236
:1024600052090B48F5E7084B80219A68B2FA82F2CC
:102470005209F6E7044B40210648DA68B2FA82F2C4
:102480005209E6E7704700BF6407002000040240DD
:102490000008024000180240032823D8DFE800F0BB
:1024A000020B131A104B102110481A68003A18BF7B
:1024B000012203F073BB0C4B40215A68003A18BF4D
:1024C00001220B48F5E7084B80219A68003A18BFB3
:1024D0000122F6E7044B40210648DA68003A18BFAB
:1024E0000122E6E7704700BF6407002000040240B5
:1024F000000802400018024003280FD8DFE800F06F
:102500000206090B1021064803F04DBB4021054887
:10251000FAE78021FBE740210348F5E7704700BF59
:1025200000040240000802400018024008B50328D9
:1025300013D8DFE800F0020A0D0F1021084803F05D
:1025400027FB431E5842584108BD40210548F6E785
:102550008021FBE740210448F1E70020F1E700BFBC
:1025600000040240000802400018024070B5084D07
:1025700000240126E0B2FFF7D9FF18B12B68012B28
:1025800018BF2E6001340435052CF3D170BD00BF97
:1025900064070020012380F8781080F879307047B4
:1025A000704700207047000041640039024B18BF9B
:1025B00001211970704700BFDF59012070470020CA
:1025C0007047836B0BB10846184770474FF6FF7092
:1025D0007047406803689B691847704770477047A9
:1025E00038B5044601F05EF9084923682046084DD5
:1025F000D3F8903098470023284684F84A30FFF7F4
:1026000077FE0123256184F8703038BD000000C0DA
:102610007407002001F0E8B801F0ECB870B501F0E3
:102620006BF910490023C1F88430BFF34F8FD1F804
:10263000803043F6E074C3F3C900C3F34E335B014B
:1026400003EA0406024646EA8275013AC1F874526A
:10265000F9D2203B13F1200FF2D1BFF34F8FBFF31C
:102660006F8F70BD00ED00E001F048B901F098B83F
:1026700001F06ABA01F072BA01F09CB810B50446D4
:1026800016F012FE23682046D3F8BC30BDE8104097
:10269000184716F025B810B5044684212DF017FF11
:1026A000204610BD90F834100D4B10B590F87840CE
:1026B0001A788C4209D03AB90A490B4A088814881A
:1026C000108001220C801A7010BD002AFCD0064A2E
:1026D0000449148808880C8010800022F3E700BFAA
:1026E000D8590120D6590120D459012070B50D4682
:1026F000194635B9094B40F2FF21094A09482EF025
:102700002DFEC0E90F52003A074B18BF01221A7084
:102710000368BDE87040D3F890301847C42A030816
:10272000FC2A03084A2B0308DE59012008B5094B8F
:102730001B888B4203D8084B1B88934205D9074B53
:10274000A321074A07482EF009FE074B1980074BC3
:102750001A8008BDD4590120D65901208F2B0308B7
:10276000F22B03084A2B0308DA590120DC59012017
:10277000034690F87A0018B1586803681B68184738
:1027800070470000014608B5034B186801B10121EC
:1027900016F0A4FD012008BDE0590120034B0022E2
:1027A0005A609A60024A1A60704700BF740700209E
:1027B0008C2A03080121002208B5084606F09EFA7B
:1027C0000A4B186028B90A4B28210A4A0A482EF0F9
:1027D000C5FD00220421012006F05AFB074B1860BA
:1027E00018B9074B2C21034AF0E708BD84070020E5
:1027F000242D03086D2D03089C2D0308800700205D
:102800000A2E0308024B4FF0FF31186806F0CEBACB
:1028100084070020014B186806F004BB84070020E1
:10282000024B0021186806F0C1BA00BF84070020DF
:10283000FFF7F0BF0023034803491A46006806F07B
:102840006DBB00BF800700200400002013B50023EB
:10285000074C01A91A46206806F0A2FB4FF0FF338F
:10286000002201A9206806F09BFB02B010BD00BF4A
:102870008007002003685B6C1847012070470368DD
:102880009B6A1847FEE700000E4B82B01A6B42F4B9
:1028900000021A631A6B02F400020192019A1A698B
:1028A00042F400021A611A6922F400021A61064B0E
:1028B000064A1A61064A5A614FF08062054B9A60D7
:1028C00002B0704700380240A8060020612B0008C3
:1028D0008528000800E100E040F2EF30704700007A
:1028E000054B4FF080620360044BC3F88820BFF3B0
:1028F0004F8FBFF36F8F7047C82F030800E100E0D0
:1029000010B504464FF45A61FFF7EAFF20462DF058
:10291000DEFD204610BD000008B50A2809D8DFE812
:1029200000F006100E080808081010101000022011
:1029300008BD054B9021054A05482EF00FFD0020EB
:10294000F6E70120F4E700BF4C2E0308672E0308CA
:10295000B22E030838B50C46887FFFF7DDFF174B12
:10296000A58AE28A586342EA054221695A64628B69
:10297000D963521B1A642568082D0ED19A611A6119
:1029800058620F4A207F42EA0062DA61E2681A6206
:102990000C4A5961D9601A6038BD0022D8611A61A9
:1029A000E1680A0A4809C1F3C40102F4784200F45C
:1029B000FC6002430A439A63034AECE700B002401A
:1029C00009000100012302000123030008B50B28C0
:1029D0000BD8DFE800F00612100A0A0A0A080808F5
:1029E0000808022008BD0520FCE7054B6F21054AB9
:1029F00005482EF0B3FC0020F4E70120F2E700BF09
:102A00004C2E03081E2F0308B22E03082DE9F041B7
:102A100091F81D800C464046FFF7D8FFA77F05467A
:102A20003846FFF7D3FF06463846FFF775FFA18A01
:102A3000628B434B521A1A649A61228B521A1A61A2
:102A4000E28A586342EA014221695A646268D963A2
:102A5000DA602068802828D0227F0FD8202866D00E
:102A6000402864D004281AD045EA0265344BB845A2
:102A700045F40035DD6160D0324A44E0B0F5807F36
:102A800004D0B0F5007FEFD12F4800E02F4840EA96
:102A90000262DA61E2681A625E62596132E045EA16
:102AA000026242F40032DA61F6E7A068021DDA62DF
:102AB000227F45EA026545F40035DD615E625961B9
:102AC000017841B1012921D0214B4FF48D71214A68
:102AD00021482EF043FCDA69418822F47F42013913
:102AE00022F0100242EA01220121DA61144BDA6974
:102AF00042F02002DA61DA699206FCD410229A6070
:102B00000029B9D0154A1A60BDE8F081B2F1FF0181
:102B1000DA69408822F47F4218BF0121013822F08F
:102B2000100242EA002242F01002DA61DEE745EAD2
:102B30000262034B42F40032B5E742F20132E2E7AF
:102B400000B0024001230100090002000A00020057
:102B5000682F0308822F0308B22E03080123020006
:102B6000024B1B68586803685B691847E0590120ED
:102B700070B504460A4B0C30002625466022606082
:102B80002672667245F8203B294616F0FBFC04F5D8
:102B90005A63EE6024359D42FBD1204670BD00BFD4
:102BA000C82F0308034B1A68D207FCD423229A606B
:102BB000704700BF00B00240094B5A69D2030AD5E2
:102BC000BFF34F8F08440029A0EB010204DCBFF3E0
:102BD0004F8FBFF36F8F70472039C3F86822F2E739
:102BE00000ED00E030B5104C2568ED07FCD423253E
:102BF0000904FF2BA56041F001014FF00205656358
:102C00006164E0630AD00949656241EA0363E361F4
:102C1000074B22626061E060236030BDE561039B89
:102C2000A363044BF8E700BF00B0024009000100B5
:102C3000010002000100030030B50F4C2568ED07CC
:102C4000FCD423251204FF2BA56042F001024FF0B3
:102C5000020565636264E063E16008D01B0643F02F
:102C60000213E361054B65626061236030BD044B74
:102C7000E3610123F9E700BF00B002400100020058
:102C8000020002FF30B50B4C2568ED07FCD423256C
:102C900012041B06A56042F00102022543F4003332
:102CA00065636264E063E160E361034B65626061F8
:102CB000236030BD00B0024001000200406970474F
:102CC00090F844007047036B23B9C06A003818BFFE
:102CD000012070470120704780687047043010B5AC
:102CE0000C460FC884E80F0010BD704708B5034AB2
:102CF00040F21221024B03482EF030FB1030030843
:102D0000DB4B03086B30030810B5044648212DF057
:102D1000DEFB204610BD00002DE9F0431D46ADF559
:102D20001F7D436B06460F469046BDF89842002B28
:102D300035D0002203A8DFF8A490CDE901320EF0CF
:102D40001DFA4FF4F4725021249024A808F0CBF916
:102D50004246394624A809F01FF9012124A808F0A9
:102D6000BDFA022324A88DF8D83008F058FB2B9B1D
:102D7000419AA342BDF89C7228BF23469742A4EB18
:102D8000030428BF174603EB43086400479B9F4298
:102D900009D824A808F0C4FA24A808F0F1F90DF520
:102DA0001F7DBDE8F083012201A924A808F080FB63
:102DB000736B03EB0800984201D82544E6E7597885
:102DC0009A78C90009EA022201F4FC610A4313F867
:102DD000031B42EAD10225F8022BECE700F8FFFFC3
:102DE0000A4A02600022C0E90522C0E90722C0E9C0
:102DF0000922C0E90B22C0E90D12C0E90F2280F8B8
:102E00004420C0E90322C0E9012270476C33030863
:102E100010B40C4611461A46036B3BB1036C806B31
:102E2000E41A20445DF8044B2EF094BDC06AF8E724
:102E3000036B10B573B1036C826BC91A5318525CE3
:102E400098785C780004DB7840EA0420104340EA7C
:102E5000036010BDC36A5858FBE7036B43B1036CB2
:102E6000C91A836B5A18585C527840EA022070479E
:102E7000C36A585A7047000070B50446006B0D468F
:102E80001646D8B1E36B934208D209230D4A652157
:102E90000D4884F844300D4B2EF060FA0368DB686F
:102EA0009847206B3246A16B03681B69984710B99D
:102EB0000D2384F84430A06B256470BDE06A08449B
:102EC000FBE700BFF63003086B300308E33003086C
:102ED0002DE9F843436904462BB9234BAA21234A21
:102EE00023482EF03BFA08228169FFF7C5FFA1694C
:102EF00043F2300646F2643704312046FFF798FF6C
:102F0000A3691844A36A00F108029A4206D3012378
:102F100000206361236AA361BDE8F8836369093017
:102F20000822013320F0010120466361A161FFF70F
:102F3000A3FFD4F8189020464946FFF78EFF09F109
:102F4000020180462046FFF788FF09F1040105468B
:102F50002046FFF76DFFB045D2D1BD42D0D1002849
:102F6000CED00120D8E700BF3831030881310308F3
:102F70006B3003082DE9F04F0446ADF51F7D8A46FE
:102F80001646816908229846FFF776FFA769204612
:102F9000391DFFF74DFF07F108010246054620469F
:102FA000FFF76AFF636B074633B93C4B40F2AB1146
:102FB0003B4A3C482EF0D2F9002203A8CDE9013269
:102FC0000EF0DCF84FF4F4725021249024A808F09D
:102FD0008AF82A46394624A808F0DEFF012124A8F1
:102FE00008F07CF9022324A88DF8D83008F017FAED
:102FF000BAF90250479BAB4229D3BAF900904FEA85
:103000004808BAF804702B9B08FB05664F44BAF8D1
:103010000250DFF894B03FB29F4228BF1F46BAF873
:10302000063009EB490A1D44419B2DB29D4228BF41
:103030001D46479BAB4210D324A808F071F924A881
:1030400008F09EF801200DF51F7DBDE8F08F0122EC
:1030500001A924A808F02CFACCE7012201A924A890
:1030600008F026FA626B49465244B94202F1030263
:1030700001D34644DDE712F8020C12F8013CC0000F
:103080000BEA032300F4FC60034312F8030C43EA49
:10309000D00326F811300131E7E700BFB43103084F
:1030A0000A3203086B30030800F8FFFF01290368A8
:1030B00038BF0121DB6A70B50D4604469847A84227
:1030C00004D223682046DB6A984705466B1EE669F2
:1030D0001022204606EB031606F10801FFF7CCFE8E
:1030E00006F110012046FFF7A3FE236A043B0344C8
:1030F000C4E9055370BD0000002148222DE9F041CC
:103100000446816180F84410FFF7B6FEA6690423E7
:10311000624A31462046FFF77BFE40B10323604AF6
:10312000F22184F844305F4B5F482EF017F906F126
:10313000080104235D4A2046A161FFF769FE30B112
:103140000423574AFA2184F84430594BECE706F13E
:103150000C010423574A2046A161FFF759FE074698
:1031600038B105234E4A40F2011184F84430524BE5
:10317000DAE706F110012046FFF75AFE054620B9AE
:103180004E4B40F20711464ACEE706F114080423DD
:103190004B4A20464146FFF73BFE002849D0062314
:1031A00084F844300423474A06F118012046FFF70B
:1031B0002FFE00283FD0072384F844304544424F77
:1031C0000C2220462946FFF757FE05F10806042386
:1031D0003A4620463146FFF71BFE94F8443000285B
:1031E00048D0002B48D1A36AAB4249D805F10C0363
:1031F00004352046A3612946FFF71AFE30442946CC
:1032000060622046FFF714FE064404222046314641
:10321000FFF732FE04232D4A31462046FFF7F8FD22
:10322000002838D10123E6616361A3692362BDE808
:10323000F0810127B6E7002FC0D006F1200120461B
:10324000FFF7F6FD4FF47A7306F13001B0FBF3F0AF
:1032500060602046FFF7ECFD06F14001A0602046CB
:10326000FFF7E6FD06F14401E0602046FFF7E0FDD0
:103270002061A3E7002BB9D00A2384F84430D6E7B5
:10328000291D2046FFF7D4FD85190C22204629462A
:10329000FFF7F2FD99E70B23EFE700BF6432030865
:1032A00082320308693203086B300308AF32030827
:1032B000B4320308CC320308D1320308E7320308E2
:1032C000F3320308F8320308FD320308023303081F
:1032D000C0E90A2100220263FFF70EBF10B50023E8
:1032E00004460846E3620B6821639B689847A06226
:1032F0002046BDE81040FFF7FFBE70B4BDF80C508B
:10330000BDF810602AB123B1CDE9035670BCFFF7B8
:1033100003BD70BC704700002DE9F04F994643692A
:1033200085B004460F4690462BB9294B7721294A90
:1033300029482EF013F808228169FFF79DFDA66940
:1033400020463146FFF789FDB11C83462046FFF732
:1033500084FD311D82462046FFF76AFD06F1080113
:10336000A36A054642189A4226D243F230039B458F
:1033700017D146F264339A4513D190B10246A16148
:103380002046FFF779FD0E9B01462A462046CDF8E0
:103390000080CDE901933B46FFF7AFFF636901333E
:1033A0006361A3692B4405B908330133626A23F0D2
:1033B00001039342A36109D1012301206361236AC0
:1033C000A36180F0010005B0BDE8F08F0020F8E7B0
:1033D00038310308073303086B30030801207047B6
:1033E0000C2070470C2303FB0100083070470C23AE
:1033F00003FB010008307047012070474FF4A560BF
:1034000070474FF4A56303FB0100083070474FF489
:10341000A56303FB010008307047012070471020AE
:10342000704700EB01100830704700EB01100830C6
:103430007047084600F038BF034B10B504460360E0
:1034400014F0A6FE204610BD1434030810B504463F
:10345000FFF7F2FF142120462DF039F8204610BD69
:10346000034B10B50446036014F092FE204610BDD5
:10347000E033030810B50446FFF7F2FF4FF4A661EE
:1034800020462DF024F8204610BD0000034B10B557
:103490000446036014F07CFE204610BDAC330308E4
:1034A00010B50446FFF7F2FF182120462DF00FF863
:1034B000204610BD084B10B50446036000F25C5076
:1034C000FFF7BAFF04F12C00FFF7CAFF04F1140064
:1034D000FFF7DCFF204610BD4834030808B502485A
:1034E000FFF7E8FF08BD00BF6016002010B50446D6
:1034F000FFF7E0FF40F2E46120462CF0E8FF2046B1
:1035000010BD00002DE9F34100F044FD0024054604
:1035100000F044FD234601462246284600941DF053
:1035200031FF274B274A2046274D1A6001F04AFDFC
:10353000264B274A27489A601DF08CFE2B68BFF364
:103540005B8FDB0735D428462CF0C3FF88B3224CB1
:10355000224B04F5B16604F1140004F12C0804F2C6
:103560005C5723606060C4F80880E760266114F04F
:1035700011FE1B4B4046636114F00CFE194B38469C
:10358000E36214F007FE184B04F5AE60C4F85C3536
:1035900001F09CFD224604F5AE61304601F08CFD41
:1035A000304600F081FE11482DF0F6FE28462CF042
:1035B0009CFF0F4802B0BDE8F041FFF711B800BF13
:1035C000445A01200C0800205C1600202C08002022
:1035D000100800200800002060160020483403086E
:1035E000AC330308E033030814340308DD34000867
:1035F0008807002070470000014815F0DAB800BFC6
:103600008807002070B5264E264B274C3046274DA4
:103610002360FFF7ADFA284622F0C6FF24481BF0CE
:1036200037FF244B00224FF4807123481A8683F819
:1036300058205A6683F870205A67DC60C3E912127A
:103640001E49C3E91A121E49C3E91E011D491E483D
:10365000C3F880101D490B604FF4F071C3E90422D8
:10366000C3E90622C3E90822C3E90A22C3E90E22FC
:10367000C3E91022C3E91422C3E91722C3E9016593
:103680000180134883F8342001804FF48871114879
:1036900001801148018011490A70114A1A6070BDF9
:1036A000B8080020B42A0308581600202C0800206F
:1036B000100800208807002000000101010000011F
:1036C0000004440016001400D4590120E0590120E0
:1036D000DA590120D6590120DC590120D85901209E
:1036E000402C03080148FFF7FBB800BFB8080020D2
:1036F0000020704781807047C1807047018170470A
:10370000418170477047704770477047704710B4E9
:10371000C4880368121B84885B6D091B12B25DF8B4
:10372000044B09B218474FF6FF7383814FF0FF3304
:1037300003621368C36110607047002070478B8874
:10374000838001207047704780F82610704790F8FA
:1037500026007047002210B5B1F90840B1F90A10EF
:10376000028042808480C18010BD0022028042809D
:103770008280C28070470177704780ED080A7047E9
:1037800080F82410704780F825107047012070479A
:10379000983070478C307047843070477047000015
:1037A000034B902283F85A2383F85823704700BFB5
:1037B00000E100E0094A0A49D3680A48C3F30A0352
:1037C000013B9BB20B801169C1F30A0101390180F1
:1037D0001364536B43F00103536370470068014067
:1037E000461D0020441D0020014BD3F8AC0070475B
:1037F00000680140024B0122C3F8AC105A627047C6
:1038000000680140124A5369DB0370B51ED50023DE
:10381000C2F88430BFF34F8FD2F8803043F6E074A3
:10382000C3F3C900C3F34E335B0103EA0406014648
:1038300046EA81750139C2F87452F9D2203B13F17E
:10384000200FF2D1BFF34F8FBFF36F8F70BD00BF5A
:1038500000ED00E07047704770473823002201FBFD
:103860000333C25490F838300BB9036C836470474B
:10387000704780F84C10704710B5044658212CF062
:1038800026FE204610BD10B504462C212CF01FFE4C
:10389000204610BD10B50446BC212CF018FE204671
:1038A00010BD000038B5044614F06FFF23689D6E0C
:1038B0001AF080FB01462046A8472368084A2046A4
:1038C000D3F88C500023A2F57F31A847054B064A58
:1038D0005A60064A1A649A644FF4FF225A6438BD4B
:1038E00000F807C0081E0020601E002000F40BC076
:1038F00014F032BF14F03CBF14F0F8BE15F079B8E4
:1039000090F8252012B103685B69184770470000E2
:1039100008B531B1044B40F29711044A04482DF028
:103920001DFD90F8390008BD5434030868340308BD
:10393000F535030810B531B1064B40F29111064A36
:1039400006482DF00BFD406811460368BDE81040A5
:103950001B6B18475434030837360308F535030842
:1039600008B529B1034B7A21034A04482DF0F6FC2F
:10397000006908BD54340308E8370308F535030827
:1039800008B529B1054B8321054A06482DF0E6FC10
:1039900041618160C0E9063208BD00BF54340308AC
:1039A000A0390308F535030810B5044629B1274BA3
:1039B000A421274A27482DF0D1FC052A34D8DFE876
:1039C00002F003292F34393E406803681B69984789
:1039D00050B34FF0FF31606D05F034F90023012240
:1039E00094F83E1084F83B3084F83920A36063617A
:1039F00001B1226284F83E306362E36A2BB901238D
:103A0000206D84F83A3005F00DFA606DBDE8104085
:103A100005F048B9002380F8393084F83E3003E0DF
:103A2000036200238360436110BD0362002383604F
:103A30004361F2E7002380F839300123EDE7003BD2
:103A400018BF012380F83D30EEE700BF543403086F
:103A50005F3B0308F535030890F825201AB190F86C
:103A6000242002B11860704770B50446164629B18B
:103A7000314BE721314A32482DF070FC90F8393053
:103A800033B1304B1B6893F86B2043691344436197
:103A9000E36A002B4DD0E169D4E905325343A268B3
:103AA0004A43934220D2236A002B42D04FF0FF3189
:103AB000606D05F0C7F8236A0BB10023E362E36A87
:103AC000FBB90125606D05F0EDF894F839300BB9BC
:103AD000236A3BB1E36A2BB90123206D84F83A30A5
:103AE00005F0A0F9284670BD94F84C000028DDD000
:103AF0009B1AB3FBF1F2994298BF02F1FF32626266
:103B0000D4E7002294F83C50A3623046E262E268B7
:103B10002261A2680132A260336333685B6998470F
:103B2000002DCED194F83D30002BCBD184F8395004
:103B3000C8E70125C9E700BF54340308363D030830
:103B4000F5350308E0590120034B4FF080629A607D
:103B50004FF080729A60704700E100E0084B4FF030
:103B60008062C3F88820BFF34F8FBFF36F8F4FF091
:103B70008072C3F88820BFF34F8FBFF36F8F7047F9
:103B800000E100E038B5034690F8380038BB012268
:103B90009860D8609A634FF4807258619A874FF4A6
:103BA000F0729861D861186258629862D86218639E
:103BB000586383F83E00CA864FF4887281F8340057
:103BC0000A8708639A6C186102F5FF24D3E910157F
:103BD00029448C420AD9084B5821084A03E0084B73
:103BE00040F2F511074A08482DF0B8FB1A6302F5B8
:103BF0007F329C645A6338BD94400308D440030864
:103C0000DA3E03080A3F0308F5350308002370B5C0
:103C1000124E05468380124B0360336893F8582098
:103C20000AB1D86C00B998680368DB6A98473368B2
:103C3000B0FA80F4D86C640930B10368DB6A984745
:103C4000002808BF44F001042CB9064B2C21064A79
:103C500006482DF083FB284670BD00BFE0590120C7
:103C60007C4303087A420308D8420308114303083F
:103C700070B5254E3568BFF35B8F15F0010540D157
:103C800030462CF026FC00283BD0204C204B04F181
:103C900034002561E584A562A585C4E90035C4E941
:103CA00002551BF0DAFE04F1580017F025F9194B04
:103CB0002046A365184B40F8843BFFF7A7FF174B3E
:103CC0001748C4F884302433C4F89050C4F88C30BA
:103CD0004FF4C803C4F89C50C4F8A850C4E9283570
:103CE0000023C4F8AC30C4F8B030C4F8B430C4F821
:103CF000B8300C4BC4F898302DF04EFB30462CF009
:103D0000F4FB024870BD00BF481D00204C1D002080
:103D10005C7003089C4303081444030810700308F4
:103D20009D370008F06F030838B5184C23685BB363
:103D3000174B184A1B6C11888B4216D1164B002565
:103D4000198802F05DFC236893F86A2083F87C50A0
:103D5000013283F86A20FEF76DFD206815F0A4FAA1
:103D60002846BDE83840FEF767BB02F049FC2468EE
:103D7000236820461B6A98470123002084F87C3082
:103D8000BDE83840FEF788BB38BD00BFE0590120D0
:103D900000680140461D0020441D00202DE9F74326
:103DA00004464FF4707894F83A304FF0FF31002B0E
:103DB00031D0606D04F046FF276BA36ABB4200D18F
:103DC000676B266A656856B32B68314628465B6A7E
:103DD00098470023236284F83B30606D04F062FF53
:103DE0002B684FF4F0723946CDF8008028465E69A2
:103DF0004FF48873B0474FF0FF310646606D04F012
:103E000021FF94F83B30E3B1002384F83B30606D30
:103E100004F048FFC7E7206D04F0C8FFC3E7636AFA
:103E2000002BDAD02B682846D3E909939847616ABA
:103E300001442846C847A368626A66621344A360C7
:103E4000CBE7E7625EB12B6828469B6A984701384A
:103E50000023E06084F83C6084F83A30D7E7012022
:103E6000F6E70000014808B5FFF798FF081E00209C
:103E70000368042270B504465E6A00230D46B0470D
:103E80004FF0FF31606D04F0DDFE382303FB054287
:103E9000D16A09B10021D16203FB0545012385F8F0
:103EA0003B30002385F83930606DBDE8704004F088
:103EB000F9BE38B500EB810304460D46114658683B
:103EC0000368DB68984729462046FFF7D1FF38BDD5
:103ED00070B50D461146044600EB85025068026835
:103EE00096681A46B04729462046FFF7C1FF70BDC5
:103EF00038B5164900251648FEF772FF154C164BCB
:103F000001202A46294623604FF48073A564A387C5
:103F100084F84C0084F83E50C4E91055C4E91455A7
:103F2000C4E90155C4E90355C4E90555C4E9075579
:103F3000C4E90955C4E90B55C4E90D5504F0DEFE8A
:103F40002065284604F03CFE606538BDA81E0020B0
:103F5000601E0020081E002060440308704710B552
:103F6000044604212CF0B3FA204610BD012908B5FF
:103F700006D0022908D059B901F070F8006808BDD0
:103F800001F06CF84068FAE701F068F88068F6E73D
:103F90000020F4E700487047AC4403080120704754
:103FA00013B5002451B1036801AA01948DF80340B0
:103FB0009C680DF10303A04702B010BD0846FBE763
:103FC000C0897047008A7047C088704780887047F2
:103FD000807A00F07F007047807AC0097047002027
:103FE000704700009FED010A704700BF000000000D
:103FF000704710B5044608212CF069FA204610BD20
:104000007047704700F598730868496803C37047A4
:10401000704770474160704770470000064BC0F81A
:104020004801C0F84C310023C0F8503100F5A273AC
:10403000C0F84031704700BFDD4000080123037223
:1040400070477047704710B441680346C2689B6868
:10405000541001EB6200D20748BF0A595DF8044BC7
:1040600048BFD35818470346406830B19A681AB918
:10407000D86800F0010070470120704710B5044671
:104080000C212CF024FA204610BD10B50446102156
:104090002CF01DFA204610BD10B504464FF4AE7149
:1040A0002CF015FA204610BD10B519F083FF0368F7
:1040B000BDE81040DB6B184710B50446D0F840014E
:1040C00058B10368DB68984738B1D4F840010368F9
:1040D0009B6898470023C4F8403110BD2DE9F14F8B
:1040E000D0E9556A0746B06803681B6A9847B0F57F
:1040F000A56F05D2444BA321444A45482DF02EF923
:10410000706803681B6A98470F2803D8414BA421A5
:104110003E4AF2E7F06803681B6A98470B2803D809
:104120003D4BA521394AE8E7DFF8F49019F042FF4A
:10413000043019F064FFD9F8000010B10368DB689F
:104140009847D9F8000010B103681B689847DFF85A
:10415000D480D8F8000010B103685B699847D7F89D
:104160003C0110B103685B689847D8F8000010B1B3
:1041700003681B689847D7F83C0110B103689B6837
:104180009847F06800214FF0000B03685B6A98477E
:10419000224B0446C0F804B080F808B059460360CA
:1041A000B06803685B6A9847054600F0EBFF7068EB
:1041B000594603685B6A98470646294600F0AEFFF9
:1041C000331DC7F83C612846C9F80040C8F80050C4
:1041D000CAF800302B68C6F808A0DB68EE63984781
:1041E000336830461B689847214628461CF098F8EB
:1041F000236820461B699847236820465B6901B005
:10420000BDE8F04F184700BFD04403085E450308DF
:1042100030460308774603081A4703083448030862
:10422000285A0120245A0120044B1B6893F8582077
:104230000AB1D86C00B99868704700BFE0590120F6
:10424000F8B5174604460E4619F07AFF124B0025C2
:104250001C602946114B2360114BC4E95135114BA9
:104260001868C4E953550368C4E94F559B68C4E90D
:1042700055769847284600F0A5FEFFF7D5FF24F0B5
:104280003EF8FFF7D1FF24F0B5F8FFF7CDFF24F09B
:10429000BDF82046F8BD00BF345A0120E0470308AE
:1042A000C8470308E0590120064BC0F84801C0F890
:1042B0004C310023C0F8503100F5A273C0F84031F2
:1042C000704700BFDD400008406A7047806A704751
:1042D00070470B888A889BB2D20A10B54C88C16996
:1042E00043EA044351F82200184410BD10B50446B7
:1042F000BAB1107B68B1537BD27A1B0203F4E0633E
:104300001A43236A03EB82031A888A4202D193F983
:10431000020010BD05D80138043380B20028F3D163
:10432000F7E70020F5E710B504462C212CF0CFF874
:10433000204610BD30B58BB00446BDF860500895DE
:10434000BDF85C5007959DF8505006959DF84C506F
:1043500005959DF8485004959DF8445003959DF8A7
:10436000405002959DF83C500195BDF8385000959D
:104370001BF030FC064B20462360159BE361169B27
:104380002362199B63621A9BA3620BB030BD00BF0E
:1043900058480308806A70477047704770477047F5
:1043A000704730B585B00368044601816D4601460B
:1043B000D3F884303C342846984795E8070084E8D1
:1043C000070005B030BD30B585B0036804464181B3
:1043D0006D460146D3F884303C342846984795E82A
:1043E000070084E8070005B030BD0022028042804B
:1043F0008280C280704780F836107047036870B5BD
:1044000004461B6B154698472368204629465B6E79
:10441000BDE87040184700207047806C70477047B7
:1044200070477047704790F82C304BB100F16C0228
:104430001268C2653BB100F174031B6803667047E4
:1044400000F16802F4E700F17003F6E708B590F8B0
:104450002C303BB100F1C4031B68C0F8A830FFF753
:10446000E2FF08BD00F1C003F6E7704770477047F0
:1044700030B444680346C2689B68551004EB620080
:10448000D20748BF625930BC48BFD35818470346CB
:10449000406830B19A681AB9D86800F001007047D6
:1044A0000120704790F82D3080F8AE3080F85A30F7
:1044B000704790F82D3080F85A30704710B5044698
:1044C0004C212CF004F8204610BD10B5044678218C
:1044D0002BF0FDFF204610BD10B50446C8212BF07F
:1044E000F6FF204610BD10B5044610212BF0EFFF5B
:1044F000204610BD10B504464FF4A5612BF0E7FF30
:10450000204610BD00F19803994273B504460E464B
:1045100013D12E4B00F58B65694600930023284686
:10452000ADF8043017F080F828461AF0FCFE284653
:1045300017F05AF828461AF0F6FE04F54073B34215
:1045400026D10023304604F52E7584F825331AF061
:10455000EAFE1E4B6946284600930423ADF804305A
:1045600017F062F828461AF0DEFE284617F03CF8ED
:1045700028461AF0D8FEB4232846A4F8243501238F
:1045800084F8DD321AF0CFFE23682046DB6A9847B4
:1045900004F5B0739E4216D10C4B04F58B6469464A
:1045A000009301232046ADF8043017F03DF8204673
:1045B0001AF0B9FE204617F017F8204602B0BDE801
:1045C00070401AF0B0BE02B070BD00BFC84403080E
:1045D00008B5FFF795F908BD10B50446006B50B15A
:1045E0000368DB68984730B1206B21460368BDE85B
:1045F00010409B68184710BD38B5B0F824550446E4
:104600009DB1013DADB2A0F8245575B9012300F567
:10461000407080F825301AF086FE04F52E7084F87C
:10462000DD52BDE838401AF07EBE38BD70B50D7958
:10463000044690F82C303DB93BB123682046D3F8AE
:104640008830BDE8704018477BB1B5FA85F3204645
:104650005B0984F82C302368D3F88C3098472368A2
:1046600020465B699847002DE7D070BD036870B5A0
:104670005E6B0446114B8DB21B682BB9104B6C213D
:10468000104A11482CF06AFE1049828D0988914227
:1046900003D80F4B6D210B4AF3E713F812200D4B93
:1046A0001B6853F8220003681B6B9847291A33468E
:1046B000204609B2BDE87040184700BF385A0120B3
:1046C000B8480308FA480308354903083C5A012052
:1046D0007C490308405A012000224FF0FF318260DC
:1046E000C0E9002170470000074A02600022C0E9CB
:1046F0000122C0E90322C0E90522C0E907224FF4E4
:1047000080728284704700BFE4720308036870B54A
:1047100004461B6B154698472368204629465B6B69
:10472000BDE870401847036870B504469B6B15469A
:104730009847236820462946DB6BBDE87040184740
:1047400038B504461D46FFF7E1FFBDF910202946A4
:104750002046FFF7E8FF38BD10B5044626220021A9
:104760002DF0F0F82046FFF7BFFF044B20462360F2
:10477000FF2384F826300023A36210BDB071030824
:1047800010B50446262200212DF0DCF82046FFF764
:10479000ABFF0A4B4FF47F0220462360084BA36215
:1047A0004FF6FF73A3850023C4E90C324FF0FF32AC
:1047B0002387E363C4E9102310BD00BF2071030801
:1047C000C844030870B50446FFF78EFF4FF47F43DB
:1047D00000252646A3850123A56284F82430144BC6
:1047E000256346F8343B3046FFF7B6FF114B2A46A7
:1047F0002946636330462566A4F86450C4E91A5517
:10480000C4E91C55FFF782FF31462046264613F0C7
:10481000D3FC094B46F8783B3046FFF7B1FF204602
:104820003146C4E9305513F0C7FC204670BD00BFC7
:10483000544A030818720308F04A030838B500F117
:1048400078050446284616F0EFFEB4F90A20B4F9BC
:1048500008102846FFF767FF38BD0368C0E930122B
:10486000D3F88C30184700002DE9F04F044693B080
:1048700000251BF0A9FBA146E44B04F16C0A04F1EE
:104880009808E56304F5B07749F8403B4846FFF7E0
:1048900063FF5046FFF760FF4046FFF793FF38463F
:1048A000FFF790FF04F50A734FF4887B261D184626
:1048B0000693FFF765FF04F51C7318460793FFF78F
:1048C0005FFF04F52E7318460393FFF759FF04F5B5
:1048D000407318460493FFF775FF04F5727318468A
:1048E0000893FFF74DFF04F5826318460993FFF71D
:1048F00047FF04F58B6318460593FFF741FFC44B50
:10490000C4F8A054C4F8583404F2A44318460A93D7
:10491000FFF736FFBF4B2A462946C4F814354846F0
:10492000BD4BC4F81845C4F81C354FF4F073C4F8F7
:104930002055A4F82455CDF800B0FFF701FF4FF043
:104940007F4349463046A36613F036FC2A46294683
:104950005046CDF800B04FF4F073FFF7F1FE4FF082
:10496000FF3351464FF04E0A3046C4F8943013F0EE
:1049700023FC2A46294604F1CC00CDF800A05F2391
:10498000FFF7DEFE4FF00503A44AA4F8FC30A44B69
:10499000A449A548DFF89892C4E94032D4F8983089
:1049A000C4E94210D3F88C30404698470DF1400ED0
:1049B0000C2340467146CDF84090ADF84430FFF7E7
:1049C0003DFF04EB0B00DFF86CB25F232946CDF806
:1049D00000A01B22FFF7B4FE5A4659464046FFF797
:1049E0003CFF04F2145E5F231222C4F8C8E0404684
:1049F000CDF800A01621CDF82CE0FFF7A1FE41462E
:104A0000304613F0D9FB2A46294604F5CA70CDF882
:104A100000A05F23FFF794FE804A814B4FF0050C06
:104A2000804904F53D788048A4F8C4C1C4E97232D5
:104A3000D4F86031C4E97410D3F88C303846984704
:104A40004FF00B0E3846CDF84090ADF844E00DF134
:104A5000400E7146FFF7F2FE5F23294604F5EC7025
:104A6000CDF800A01B22FFF76BFE5A465946384688
:104A7000FFF7F3FE0B9B6D223846C4F890311621E8
:104A80005F23CDF800A0FFF75BFE394630464FF0BC
:104A90007F4713F091FB2D2206988521FFF736FE04
:104AA000C4F858720CAF0699A4F85C524FF0030A90
:104AB000384616F01FFB04F519730DF1400E97E808
:104AC000070083E807000A2371460698ADF84430D2
:104AD000CDF8409016F0A8FD0699304613F06CFB17
:104AE000882207988521FFF711FE4FF07F4E079926
:104AF0003846C4F8A0E2A4F8A45216F0FBFA04F574
:104B00002B730DF1400E97E8070083E80700092397
:104B100071460798ADF84430CDF8409016F084FD0A
:104B20000799304613F048FBE32203984FF4927143
:104B3000FFF7ECFD3D4B03993846C4F8E832A4F882
:104B4000EC5216F0D7FA012397E8070088E807002F
:104B500084F8F1323846039916F0CCFA4FF0050C80
:104B600097E80700ADF844C00DF1400CCDF8409037
:104B700088E8070061464FF03008039816F054FDAE
:104B80000399304613F018FB2A46294604F54D7068
:104B90008423CDF80080FFF7D3FD204A204B214924
:104BA0002148A4F864A3C4E9DA32D4F80033C4E994
:104BB000DC10D3F88C3004989847082310A9049887
:104BC000ADF84430CDF84090FFF738FE84232946F5
:104BD00004F55E700B22CDF80080FFF7B1FD5A4658
:104BE00059460498FFF739FE0B9BD1220498C4F86C
:104BF000303340F23B118423CDF80080FFF7A0FD55
:104C00000499304613F0D8FA16E000BFA44B03080D
:104C1000C44903088C4B030805450008CC9900FFE4
:104C2000996600FF663300FF996633FF0000FFFFBF
:104C3000C84403080A0A0AFFC52208981621FFF78C
:104C400065FD4FF07F4308993846C4F8F833A4F85F
:104C5000FC5316F04FFA04F2044397E8070083E888
:104C60000700072310A90898ADF84430CDF840900C
:104C700016F0DAFC0899304613F09EFAE322099800
:104C80001621FFF743FD4FF07F4309993846C4F8DA
:104C90004034A4F8445416F02DFA04F24C4397E83B
:104CA000070083E8070010A90998CDF84090ADF8F7
:104CB00044A016F0B9FC0999304613F07DFAC522DC
:104CC00005989421FFF722FD4FF07F430599384660
:104CD000C4F88834D4F85834A4F88C54D3F8843009
:104CE000984704F2944397E8070083E8070004F22A
:104CF000EC430598A4F8EC54C4F8A03416F074FC06
:104D0000062310A90598ADF84430CDF8409016F070
:104D10008BFC0599304613F04FFAE3220A98942150
:104D2000FFF7F4FC4FF07F430A993846C4F8D434B7
:104D3000A4F8D85416F0DEF904F59C6397E8070050
:104D400083E80700022310A90A98ADF84430CDF893
:104D5000409016F069FC30460A9913F02DFA20466F
:104D600013B0BDE8F08F00BF7047000030B5174D9D
:104D70008FB02C68BFF35B8F14F0010422D128465A
:104D80002BF0A7FBF0B13F23122211490993114BDD
:104D900011480893114B0A9407930123019404933B
:104DA000CDE905430423CDE902430A23CDE90B44B1
:104DB00000930C23FFF7BEFA09482CF0EDFA2846C1
:104DC0002BF093FB04480FB030BD00BF2826002015
:104DD000EC0A0090B47B03082C260020FC7B03081F
:104DE000694D00087047000030B5174D8FB02C6832
:104DF000BFF35B8F14F0010422D128462BF069FB2E
:104E0000F0B13F23202211490993114B1148089317
:104E1000114B0A940793012301940493CDE90533C0
:104E20000423CDE902431423CDE90B440093182356
:104E3000FFF780FA09482CF0AFFA28462BF055FB13
:104E400004480FB030BD00BF58260020E80B00908A
:104E5000B87B03085C260020007C0308E54D0008B1
:104E60007047000030B5164D8FB02C68BFF35B8FD4
:104E700014F0010420D128462BF02BFBE0B13F2396
:104E8000012210490993104B10480893104B0A94C3
:104E90000594CDE906430423CDE903322823CDE967
:104EA0000B440093CDE90144FFF744FA09482CF084
:104EB00073FA28462BF019FB04480FB030BD00BF31
:104EC00088260020A80D0090F87B03088C2600207F
:104ED000047C0308614E00080020704700207047E2
:104EE0000EB403B503AB002153F8042B01931AF061
:104EF000EFF802B05DF804EB03B070470CB407B5EF
:104F000004AB53F8042B01931AF0E2F803B05DF8F8
:104F100004EB02B070470000436C10B5044673B355
:104F2000038F2BB9184BC521184A19482CF016FAD3
:104F3000C38E00EB43035B8C0BB31BF04FFF238F3F
:104F4000012B03D8134BCB21134AEEE7E28E40F638
:104F50003F10531C9BB2092B194688BFA3F10A01CD
:104F600004EB4101498C814209D10A2B04EB420236
:104F700028BF0023508C04EB4303588451842046FF
:104F8000BDE810401BF02CBED44B0308DD4B0308DA
:104F9000884C0308D24C0308E04C03081BF0E9BD21
:104FA00010B586B002AC84E806001A460AAB21466A
:104FB00005930193099B0093089B18F099FB06B099
:104FC00010BD000038B518BB124B13481C681349BC
:104FD000B4B1226822440260626822440A60A26876
:104FE00014440F4B00221A8000F038F8054600F0F8
:104FF00033F80C4B1C600C4B1D600C4B188007E009
:105000000B4B03600B4B0B600B4B1C68002CE8D167
:1050100038BD00BFC4260020BC260020B8260020D2
:10502000C0260020385A0120405A01203C5A012055
:10503000EC0D0090B80D0090140F0090044B1B680D
:1050400053F82100034B1B6803EB4000704700BF7F
:10505000B8260020BC2600200D207047004870476D
:10506000C826002010B5054CFFF7BEFE2060FFF7F4
:10507000F9FE6060FFF77AFEA06010BDC826002030
:1050800010B5002404600C6014601C6010BD7047F3
:1050900010B504464FF4AE712BF019FA204610BD3E
:1050A00010B50446D0F8580100F013F82046BDE8CA
:1050B000104019F001B8000010B50446FFF7C0F821
:1050C000014B2046236010BDBC4D03080022026046
:1050D0007047704710B51322044604302CF04CFC86
:1050E0000023E37510BD000001460148FFF7F2BF41
:1050F000D4260020014B00221A607047D4260020DD
:10510000704704387047704710B5044610212BF0E3
:10511000DEF9204610BDA0F10400F5E70022C160D1
:105120008260024A0260183242607047104E0308E3
:1051300070470000012307B58DF8073000230548AC
:105140000DF107011A46006803F0E8FE03B05DF8B0
:1051500004FB00BFEC030020034B10B504460360C2
:10516000FFF75EF9204610BD384E030810B504461F
:10517000FFF7F2FF4FF4A56120462BF0A8F9204677
:1051800010BD000010B50446FFF76EFB014B204632
:10519000236010BD384E0308FFF743B90F490020C4
:1051A000D1F8883043F47003C1F888300C4B1A688A
:1051B00042F001021A6098601A6822F0847222F4A8
:1051C00080321A60074A5A601A6822F480221A60F4
:1051D000D8604FF000638B60704700BF00ED00E0C7
:1051E0000038024010300024704700207047000053
:1051F000002337B58DF807300C4B1A780AB9012215
:105200001A700324C5B2013CA8212846FDF7F8F81E
:1052100014F0FF048DF807009DF80730DBB201D0D1
:10522000512BF0D19DF8070003B030BDEE260020D1
:1052300013B500240221C0B28DF80740FDF7E0F855
:105240008DF807009DF8073003F00F038DF8073045
:105250009DF80730052B01D98DF807409DF80720F0
:10526000034B9DF807005A7000229A7002B010BDDF
:10527000EE2600202DE9F74F2F4C15464FF0000881
:105280000F46A37862788DF807809A424DD9092B92
:105290004ED803EB43035B00DBB2191D03F1030B94
:1052A00003F1060A0533C9B25FFA8BFB5FFA8AFA8B
:1052B0005FFA83F8C6B2DFF884903046FDF7A0F8B5
:1052C0008DF807009DF8073059463046A9F80030A0
:1052D000FDF796F88DF8070051469DF807303046E7
:1052E000B9F800201B0203F4706313433B80A9F854
:1052F0000030FDF785F88DF8070041469DF807302E
:105300003046A9F80030FDF77BF88DF807009DF8CE
:105310000730B9F800201B0203F470631343A9F8A7
:1053200000302B80A3780133A37003B0BDE8F08F69
:10533000C246C3464146BDE7EE260020EC260020CB
:105340000122A421C0B2FDF741B80022A421C0B2BD
:10535000FDF73CB8FFF7F9BF70470000024B1A7821
:105360000AB901221A707047EE260020074A03206E
:1053700008B5136843F48073136000F02DF8002023
:10538000FCF7B8FEFCF7BCFB002008BD003C024067
:10539000034A044B11681B780B441360704700BF2D
:1053A000F426002038000020014B1868704700BF29
:1053B000F426002038B50446FFF7F6FF0546631CC7
:1053C0001EBF044B1B78E418FFF7EEFF431BA342FC
:1053D000FAD338BD3800002007490302CA6803F435
:1053E000E06322F4E0621204120C134343F0BF6343
:1053F00043F40033CB60704700ED00E0164B30B54E
:10540000DC68C4F30224C4F10703251D042B28BF64
:105410000423062D4FF0FF358CBF033C002405FA12
:1054200003F3002805FA04F521EA030322EA050242
:1054300003FA04F343EA02034FEA0313DBB206DB89
:1054400000F1604000F5614080F8003330BD00F0AD
:105450000F00024A1354F9E700ED00E014ED00E0FC
:10546000002807DB4109012300F01F00024A8340A6
:1054700042F82130704700BF00E100E000280CDB5B
:105480004309012200F01F0004492033824041F803
:105490002320BFF34F8FBFF36F8F704700E100E011
:1054A000BFF35F8F044B5A6A22F480325A620022A3
:1054B000C3F89420704700BF00ED00E0064B40F0B9
:1054C0000100C3F894005A6A42F480325A62BFF372
:1054D0004F8FBFF36F8F704700ED00E04378144AA1
:1054E000C2F89830D2F8A03023F00103C2F8A030FF
:1054F0004368C2F89C30C37A017B1B0643EA017300
:1055000001780B43817A43EAC143417B43EA8143FB
:10551000817B43EA4143C17B43EA0143417A43EA49
:105520000123017A43EA4103C2F8A030704700BF6B
:1055300000ED00E010B5044608B9012010BD437F1E
:1055400003F0FF0213B90277FCF7F8FA022363773E
:105550002379E3B92368134A5A619A6822F0180242
:105560009A6062792368D2B94FF0FF321A61002045
:105570009A68616922F060020A43A1699A609A6898
:1055800022F080020A439A6001236377D6E7D4E9C8
:105590000212204600F008F80028E2D0CDE7226988
:1055A000E4E700BFB71DC104CB0710B50DD51F231D
:1055B000013B1DD321FA03F4E407F9D5102A13D0D7
:1055C000102A04D83AB1082A10D001200BE0182A7A
:1055D000FBD1062BF9D800684161836823F01803DA
:1055E00013438360002010BD072BF3E70F2BF1E777
:1055F000102AE5D1E9E770B50446866DFFF7D4FEC1
:10560000054694F83530022B06D0802301206365CF
:10561000002384F8343070BD23681A6822F0160223
:105620001A605A6922F080025A61226C0AB9A26C8F
:105630001AB11A6822F008021A601A6822F00102F0
:105640001A602368186810F0010007D1E26D3F234B
:105650009340B360012384F83530D9E7FFF7A4FE07
:10566000401B0528EDD920230320636584F835000D
:10567000CEE790F83530022B03D08023436501201C
:1056800070470268052380F835300020136823F046
:1056900001031360704710B5044630B390F83930F9
:1056A00003F0FF021BB980F83820FCF75DFA22688E
:1056B00002236168002084F83930136823F44033F2
:1056C0000B43A1681360536B23F007030B43E1689E
:1056D0005363136C23F47F5323F03F030B43136492
:1056E0000123E06384F8393010BD0120FCE77047E6
:1056F0007047036870B55E6804461D68F20714D5EC
:10570000E90512D51A6822F480721A60C26B42F061
:105710000102C26301229A60042380F83930002319
:1057200080F83830436903B19847B20616D5AB0408
:1057300014D523681A6822F400521A6020229A6055
:10574000E36B43F00203E363042384F8393000235E
:1057500084F8383063690BB120469847300716D576
:10576000290514D523681A6822F400621A600822F9
:105770009A60E36B43F00403E363042384F8393055
:10578000002384F8383063690BB1204698477207CC
:105790000BD56B0509D5236820461A6822F4806270
:1057A0001A6004229A60FFF7A2FFB00714D5A9057A
:1057B00012D523681A6822F400721A6002229A60D5
:1057C000E36BE363012384F83930002384F8383035
:1057D00023690BB120469847F20613D5EB0411D587
:1057E000236820461A6822F480521A6010229A60B8
:1057F000E36BE363012384F83930002384F8383005
:10580000FFF776FF70BD0000F0B590F83820034632
:105810000220012A2BD0012283F839000E011C4FEF
:1058200083F8382003EB0112D2E90740556A44EAB5
:105830000040093C012C96BF05F07F4240EA05601C
:1058400010431A68A1B9516A012C01EA070141EA23
:10585000000151629969916103D8596A21F07F4131
:1058600091620122002083F8392083F83800F0BDCE
:10587000D169012C01EA070141EA0001D16103EB82
:10588000060189691161ECD825F07F451562E8E7CA
:10589000F0FFFC002DE9F74F0023DFF8BC916C4AC4
:1058A00001240D689C4004EA0506AC4340F0B78033
:1058B0004D6803274FEA430E05F0030407FA0EFC78
:1058C000671E6FEA0C0C012F34D8876807EA0C08B2
:1058D000CF6807FA0EF747EA08078760476827EAA4
:1058E0000608C5F300179F4047EA08074760C768E6
:1058F000022C07EA0C088F6807FA0EF747EA080738
:10590000C76019D14FEAD30803F0070A4FF00F0B15
:1059100000EB88084FEA8A0AD8F820700BFA0AFBD5
:1059200027EA0B0B0F6907FA0AF747EA0B07C8F8D3
:10593000207001E0032CDAD1076804FA0EF415F4A4
:10594000403F07EA0C0744EA0704046067D0D9F82F
:10595000444023F0030703F0030C4FF00F0E44F410
:10596000804407F180474FEA8C0CC9F8444007F5A2
:105970009C37D9F844400EFA0CFE04F4804401949C
:10598000019CBC6824EA0E0E324CA0424ED004F5B5
:105990008064A0424CD004F58064A0424AD004F553
:1059A0008064A04248D004F58064A04246D004F54B
:1059B0008064A04244D004F58064A04242D004F543
:1059C0008064A04240D004F58064A0423ED004F53B
:1059D0008064A04214BF0A24092404FA0CF415F4CC
:1059E000801F44EA0E04BC606FEA060794680CBF8F
:1059F0003C40344315F4001F9460D4680CBF3C4015
:105A0000344315F4003FD46054680CBF3C40344329
:105A1000ED035460146854BF3C40344314600133B8
:105A2000102B7FF43DAF03B0BDE8F08F0024D4E726
:105A30000124D2E70224D0E70324CEE70424CCE7F4
:105A40000524CAE70624C8E70724C6E70824C4E7F4
:105A5000003C014000000240003802402DE9F04FB8
:105A600000224FF0010A4FF00F084FF0030B464C95
:105A70000AFA02FC3CEA01030CEA01066CD122F0AE
:105A8000030502F0030705F18045BF0005F59C35CD
:105A900008FA07F9AB6809EA030E3C4B984260D05C
:105AA00003F5806398425ED003F5806398425CD032
:105AB00003F5806398425AD003F58063984258D02A
:105AC00003F58063984256D003F58063984254D022
:105AD00003F58063984252D003F58063984250D01A
